{
  "contractName": "MyNFT",
  "abi": [
    {
      "inputs": [],
      "name": "add",
      "outputs": [
        {
          "internalType": "uint256",
          "name": "",
          "type": "uint256"
        }
      ],
      "stateMutability": "nonpayable",
      "type": "function"
    },
    {
      "inputs": [],
      "name": "getCounter",
      "outputs": [
        {
          "internalType": "uint256",
          "name": "",
          "type": "uint256"
        }
      ],
      "stateMutability": "view",
      "type": "function",
      "constant": true
    }
  ],
  "bytecode": "0x608060405234801561001057600080fd5b5061018e806100206000396000f3fe608060405234801561001057600080fd5b50600436106100365760003560e01c80634f2be91f1461003b5780638ada066e14610059575b600080fd5b610043610077565b60405161005091906100b8565b60405180910390f35b610061610096565b60405161006e91906100b8565b60405180910390f35b600060016000546100889190610102565b600081905550600054905090565b60008054905090565b6000819050919050565b6100b28161009f565b82525050565b60006020820190506100cd60008301846100a9565b92915050565b7f4e487b7100000000000000000000000000000000000000000000000000000000600052601160045260246000fd5b600061010d8261009f565b91506101188361009f565b9250827fffffffffffffffffffffffffffffffffffffffffffffffffffffffffffffffff0382111561014d5761014c6100d3565b5b82820190509291505056fea2646970667358221220a5571c9863f4401c81be3510c27b5a74b8da194adaf43227b54fcd82c83d606e64736f6c634300080d0033",
  "immutableReferences": {},
  "source": "// SPDX-License-Identifier: MIT\n// Tells the Solidity compiler to compile only from v0.8.13 to v0.9.0\npragma solidity ^0.8.13;\n\ncontract MyNFT {\n\tuint256 private counter;\n\n\tfunction add() external returns(uint256) {\n\t\tcounter = counter + 1;\n\t\treturn counter;\n\t}\n\tfunction getCounter() external view returns(uint256){\n\t\treturn counter;\n\t}\n}\n",
  "sourcePath": "D:\\projects\\Projects\\TruffleProject\\contracts\\MyNFT.sol",
  "compiler": {
    "name": "solc",
    "version": "0.8.13+commit.abaa5c0e.Emscripten.clang"
  },
  "schemaVersion": "3.4.15",
  "updatedAt": "2023-09-01T09:45:16.766Z",
  "networkType": "ethereum",
  "devdoc": {
    "kind": "dev",
    "methods": {},
    "version": 1
  },
  "userdoc": {
    "kind": "user",
    "methods": {},
    "version": 1
  }
}